:100000000C942A000C9434000C9434000C943400AA
:100010000C9434000C9434000C9434000C94340090
:100020000C9434000C9434000C9434000C94340080
:100030000C9434000C9434000C9434000C94340070
:100040000C9434000C9434000C9434000C94340060
:100050000C94340011241FBECFE5D8E0DEBFCDBF25
:100060000E9436000C945F000C940000889A899AD4
:100070008A9A8B9A8C9A8D9A8E9A8F9A28EC30E075
:10008000909A919A929A939A949A959A969A979A04
:1000900088E893E1F9013197F1F70197D9F7909842
:1000A000919892989398949895989698979888E8AC
:1000B00093E1F9013197F1F70197D9F7E1CFF8947E
:0200C000FFCF70
:00000001FF
