:100000000C942A000C943F000C943F000C943F0089
:100010000C943F000C943F000C943F000C943F0064
:100020000C943F000C943F000C943F000C943F0054
:100030000C943F000C943F000C943F000C943F0044
:100040000C943F000C943F000C943F000C943F0034
:100050000C943F0011241FBECFE5D8E0DEBFCDBF1A
:1000600010E0A0E6B0E0E8E2FBE002C005900D92EF
:10007000A638B107D9F70E94F0000C9492050C94B1
:10008000000080FF02C0D89A01C0D89881FF02C04A
:10009000D99A01C0D99882FF02C0DA9A01C0DA98D1
:1000A00083FF02C0DB9A0895DB9808951F93182FF1
:1000B000C19A82958F700E944100C198C19A812F88
:1000C0000E944100C19885E88A95F1F71F91089533
:1000D000C0980E9456000895C09A0E945600089544
:1000E000CF93DF93EC0103C021960E946C008881BE
:1000F0008823D1F7DF91CF9108956295660F660F3F
:10010000607C680F862F80680E946800089581E0F7
:100110000E94680080EA9FE00197F1F7089582E06D
:100120000E94680080EA9FE00197F1F708951F930D
:10013000CF93DF93D09AD19AD29AD39AB99AB89A98
:1001400080E395E70197F1F7C098C19810E0C0E10E
:10015000D7E2C19A83E00E944100C198CE01019785
:10016000F1F71F5F1330A9F7C19A82E00E944100A6
:10017000C19880ED97E00197F1F788E20E9468004E
:1001800088E00E94680081E00E94680080EA9FE0A9
:100190000197F1F786E00E9468008CE00E946800F9
:1001A000DF91CF911F910895282F30E020533040E8
:1001B000C9010895FC010DC08B3219F4460F571F79
:1001C0000DC031968D3229F4CB01841B950BAC0107
:1001D00005C080818D3381F740E050E0CA01089569
:1001E0002F923F924F925F926F927F928F929F9247
:1001F000AF92BF92CF92DF92EF92FF920F931F9335
:10020000DF93CF93CDB7DEB7A3970FB6F894DEBFD9
:100210000FBECDBF0E9497000E948F0006E310E042
:100220005BE3E52EF12C47E1C42ED12C2E0108947E
:10023000411C511C30E6232E30E0332E26E0622E86
:10024000712C6C0E7D1E9BE0892E912C8C0E9D1EB8
:1002500080E1A82EB12CAC0EBD1E0F5F1F4F0C33DA
:10026000110509F0F0C00894E11CF11C8CE3E816BC
:10027000F10419F000E010E00DC00894C11CD11C7D
:1002800098E1C916D10411F4CC24DD2400E010E07B
:10029000EE24FF2400D000D000D0EDB7FEB7319699
:1002A000ADB7BEB712965C924E92119733822282FE
:1002B000158304830E94BA028DB79EB706960FB6C7
:1002C000F8949EBF0FBE8DBF1CC000D000D000D0E0
:1002D000EDB7FEB73196ADB7BEB712965C924E92AF
:1002E000119785E690E093838283158304830E94AF
:1002F000BA02ADB7BEB716960FB6F894BEBF0FBE22
:10030000ADBFBAE0EB16F104D8F400D000D000D0B5
:10031000EDB7FEB73196ADB7BEB712967C926E922E
:10032000119733822282F582E4820E94BA028DB74D
:100330009EB706960FB6F8949EBF0FBE8DBF1CC029
:1003400000D000D000D0EDB7FEB73196ADB7BEB744
:1003500012967C926E92119785E690E09383828349
:10036000F582E4820E94BA02ADB7BEB716960FB608
:10037000F894BEBF0FBEADBFBAE0CB16D10478F47F
:1003800000D000D000D0EDB7FEB73196ADB7BEB704
:1003900012969C928E92119789E690E00EC000D042
:1003A00000D000D0EDB7FEB73196ADB7BEB712960C
:1003B0009C928E9211978DE690E093838283D582F2
:1003C000C4820E94BA02ADB7BEB716960FB6F894B3
:1003D000BEBF0FBEADBFC50160E770E00E94AB02BB
:1003E0000E9487008CE060E00E947D00C2010E94B4
:1003F000700089E060E00E947D00C3010E947000EF
:1004000087E060E00E947D00C4010E94700080E0EF
:1004100060E00E947D00C5010E94700080E061E004
:100420000E947D00C50166E770E00E94AB02C50135
:100430000E94700080E197E2E8ECF0E03197F1F77C
:100440000197D1F70ACF0A30110508F03ECF22CF2D
:10045000DF93CF93CDB7DEB764970FB6F894DEBFC6
:100460000FBECDBF9C0180E090E001C00196F90174
:10047000E80FF91FE081EB3211F0ED32B9F7280FE8
:10048000391FA0E0B0E0AE014F5F5F4F05C0FA0139
:10049000EA0FFB1F80831196F90181812F5F3F4F87
:1004A0008D33A9F7A40FB51F80E28C93CA010E9477
:1004B0008D0264960FB6F894DEBF0FBECDBFCF910C
:1004C000DF910895DF93CF93CDB7DEB764970FB672
:1004D000F894DEBF0FBECDBF20E030E0BE016F5FFD
:1004E0007F4F06C0FB01E20FF31F40832F5F3F4F9A
:1004F000FC01E20FF31F40814B3211F04D3291F7B6
:10050000CE0101960E948D0264960FB6F894DEBF6C
:100510000FBECDBFCF91DF910895FC0188279927A9
:10052000E89421912032E9F3293010F02E30C8F3FD
:100530002B3241F02D3239F4689404C00E94B2028B
:10054000820F911D219120532A30C0F31EF4909503
:1005500081959F4F0895FB01DC0101900D920020D1
:10056000E1F708957AE0979F902D879F802D910D58
:1005700011240895AEE0B0E0E0ECF2E00C946905DF
:100580000D891E8986E08C831A8309838FEF9FE78C
:100590009E838D839E01275E3F4FCE0101966F891A
:1005A000788DA9010E94DE022F813885020F131F6A
:1005B000F80110822E96E4E00C948505ABE0B0E0E3
:1005C000E4EEF2E00C945B053C012B015A01FC01C6
:1005D00017821682838181FD03C06FEF7FEFC6C152
:1005E0009AE0892E1E010894211C311CF3012381FD
:1005F000F20123FD859123FF81912F01882309F4C6
:10060000B2C1853239F423FD859123FF81912F01F9
:10061000853229F490E0B3010E94D104E7CF982FEE
:10062000FF24EE249924FFE1FF15D0F09B3269F0FE
:100630009C3228F4903259F0933291F40EC09D32DE
:1006400049F0903369F441E024C052E0F52A84E097
:10065000F82A28C098E0F92A25C0E0E1FE2A22C045
:10066000F7FC29C0892F80538A3070F4F6FE05C04C
:10067000989C902C1124980E15C0E89CE02C112415
:10068000E80EF0E2FF2A0EC09E3229F4F6FC6BC1A0
:1006900040E4F42A07C09C3619F450E8F52A02C059
:1006A000983649F4F20123FD959123FF91912F0192
:1006B000992309F0B8CF892F8554833018F08052E0
:1006C000833038F444E050E0A40EB51E5FE3598354
:1006D0000FC0933631F0933779F0933509F056C057
:1006E00020C0F5018081898342E050E0A40EB51E50
:1006F000610101E010E012C0F501C080D180F6FC7C
:1007000003C06FEF7FEF02C0692D70E042E050E060
:10071000A40EB51EC6010E94C6048C015FE7F52237
:1007200014C0F501C080D180F6FC03C06FEF7FEFED
:1007300002C0692D70E042E050E0A40EB51EC60173
:100740000E94BB048C0150E8F52AF3FE07C01AC0D2
:1007500080E290E0B3010E94D104EA948E2D90E0F3
:1007600008171907A8F30EC0F601F7FC8591F7FEEC
:1007700081916F0190E0B3010E94D104E110EA94ED
:10078000015010400115110579F7EAC0943611F0B7
:10079000993669F5F7FE08C0F50120813181428163
:1007A000538184E090E00AC0F501808191819C0131
:1007B000442737FD4095542F82E090E0A80EB91EE3
:1007C0009FE6F92257FF09C0509540953095219535
:1007D0003F4F4F4F5F4FE0E8FE2ACA01B901A10128
:1007E0002AE030E00E94FD04D82ED21840C0953790
:1007F00029F41F2D1F7E2AE030E01DC01F2D197F18
:100800009F3661F0903720F4983509F0ACC00FC0E6
:10081000903739F0983709F0A6C004C028E030E0DE
:100820000AC0106114FD146020E130E004C014FD22
:10083000166020E132E017FF08C0F5016081718188
:100840008281938144E050E008C0F501808191816C
:10085000BC0180E090E042E050E0A40EB51EA10192
:100860000E94FD04D82ED2188FE7F82EF122F6FE52
:100870000BC05EEFF522D91438F4F4FE07C0F2FC89
:1008800005C08FEEF82202C01D2D01C0192DF4FE07
:100890000DC0FE01ED0DF11D8081803319F499EE3C
:1008A000F92208C01F5FF2FE05C003C08F2D8678B5
:1008B00009F01F5F0F2DF3FC14C0F0FE0FC01E15D2
:1008C00010F09D2C0BC09D2C9E0C911A1E2D06C065
:1008D00080E290E0B3010E94D1041F5F1E15C0F3B7
:1008E00004C01E1510F4E11A01C0EE2404FF0FC06D
:1008F00080E390E0B3010E94D10402FF1DC001FD1E
:1009000003C088E790E00EC088E590E00BC0802F20
:10091000867891F001FF02C08BE201C080E2F7FC13
:100920008DE290E0B3010E94D10406C080E390E024
:10093000B3010E94D1049A94D914C0F3DA94F1015E
:10094000ED0DF11D808190E0B3010E94D104DD2006
:10095000A9F706C080E290E0B3010E94D104EA94B6
:10096000EE20C1F743CEF30166817781CB012B9650
:10097000E2E10C947705FC01059061507040011094
:10098000D8F7809590958E0F9F1F0895FC016150B8
:10099000704001900110D8F7809590958E0F9F1FA1
:1009A00008950F931F93CF93DF938C01EB018B81FD
:1009B00081FF1BC082FF0DC02E813F818C819D81F4
:1009C0002817390764F4E881F9810193F983E883F2
:1009D00006C0E885F985802F0995892B31F48E8131
:1009E0009F8101969F838E8302C00FEF1FEFC80186
:1009F000DF91CF911F910F910895FA01AA27283016
:100A000051F1203181F1E8946F936E7F6E5F7F4FDB
:100A10008F4F9F4FAF4FB1E03ED0B4E03CD0670F57
:100A2000781F891F9A1FA11D680F791F8A1F911DAA
:100A3000A11D6A0F711D811D911DA11D20D009F4FA
:100A400068943F912AE0269F11243019305D31933C
:100A5000DEF6CF010895462F4770405D4193B3E025
:100A60000FD0C9F7F6CF462F4F70405D4A3318F0CC
:100A7000495D31FD4052419302D0A9F7EACFB4E07D
:100A8000A6959795879577956795BA95C9F7009735
:100A90006105710508959B01AC010A2E06945795D6
:100AA000479537952795BA95C9F7620F731F841F2D
:100AB000951FA01D08952F923F924F925F926F92C3
:100AC0007F928F929F92AF92BF92CF92DF92EF92DE
:100AD000FF920F931F93CF93DF93CDB7DEB7CA1B5F
:100AE000DB0B0FB6F894DEBF0FBECDBF09942A888A
:100AF000398848885F846E847D848C849B84AA8432
:100B0000B984C884DF80EE80FD800C811B81AA81BE
:100B1000B981CE0FD11D0FB6F894DEBF0FBECDBF89
:080B2000ED010895F894FFCFE8
:100B28003A302564003A25640030256400256400C5
:100B3800436C6F636B003235323931392C203235D2
:060B4800323837300000D6
:00000001FF
