:100000000C942A000C9447000C9447000C94470071
:100010000C9447000C9447000C9447000C948E00FD
:100020000C9447000C9447000C9447000C94470034
:100030000C9447000C9447000C9447000C94470024
:100040000C9447000C9447000C9447000C94470014
:100050000C94470011241FBECFE5D8E0DEBFCDBF12
:1000600010E0A0E6B0E0E0E9F1E002C005900D92FA
:10007000AC36B107D9F710E0ACE6B0E001C01D9294
:10008000A637B107E1F70E9462000C94C6000C94F9
:1000900000008EB588608EBD8EB584608EBD82E115
:1000A0009AE79BBD8ABD89B7806189BF08958FEFAC
:1000B00084BB15BA0895E0E6F0E0E80FF11D8081F9
:1000C00085BB08958898909ABC98C49ABD9AC598A3
:1000D0000E9449008FEF84BB15BAB89A8099FECF71
:1000E00088E893E128EC30E0F9013197F1F70197C6
:1000F000D9F7789420916C0048EC50E0809909C0C1
:10010000C59A2F5F88E893E1FA013197F1F70197DB
:10011000D9F7223098F3C59820E0F0CF1F920F92C4
:100120000FB60F9211242F933F938F939F93EF93CA
:10013000FF93B4990BC0E0916A00E150E0936A002C
:10014000F0E0E05AFF4F808185BB03C08AE08093D6
:100150006A0080916A00882371F4C09A80E593EC6C
:1001600028EC30E0F9013197F1F70197D9F7C09801
:100170008AE080936A00FF91EF919F918F913F9168
:100180002F910F900FBE0F901F901895F894FFCFEE
:0C0190007E306D79335B5F707F7B0A006E
:00000001FF
