:100000000C942A000C9434000C9434000C943400AA
:100010000C9434000C9434000C9434000C94340090
:100020000C9434000C9434000C9434000C94340080
:100030000C9434000C9434000C9434000C94340070
:100040000C9434000C9434000C9434000C94340060
:100050000C94340011241FBECFE5D8E0DEBFCDBF25
:100060000E9436000C944A000C9400008F9A28ECF1
:1000700030E0979A88E893E1F9013197F1F7019719
:10008000D9F7979888E893E1F9013197F1F701974B
:08009000D9F7EFCFF894FFCF80
:00000001FF
