:100000000C942A000C9434000C9434000C943400AA
:100010000C9434000C9434000C9434000C94340090
:100020000C9434000C9434000C9434000C94340080
:100030000C9434000C9434000C9434000C94340070
:100040000C9434000C9434000C9434000C94340060
:100050000C94340011241FBECFE5D8E0DEBFCDBF25
:100060000E9436000C9451000C9400008FEF81BB6D
:10007000A098A89A4FEF28EC30E0989902C042BBB4
:1000800001C012BA88E893E1F9013197F1F70197BD
:10009000D9F788E893E1F9013197F1F70197D9F79A
:0600A000ECCFF894FFCF45
:00000001FF
