:100000000C942A000C943F000C943F000C943F0089
:100010000C943F000C943F000C943F000C943F0064
:100020000C943F000C943F000C943F000C943F0054
:100030000C943F000C943F000C943F000C943F0044
:100040000C943F000C943F000C943F000C943F0034
:100050000C943F0011241FBECFE5D8E0DEBFCDBF1A
:1000600010E0A0E6B0E0E6E7F9E002C005900D92EE
:10007000A237B107D9F70E942E010C94B9040C9451
:10008000000080FF02C0C29A01C0C29881FF02C076
:10009000C39A01C0C39882FF02C0C49A01C0C49829
:1000A00083FF02C0C59A0895C59808951F93182F1D
:1000B000C19A82958F700E944100C198C19A812F88
:1000C0000E944100C19885E88A95F1F71F91089533
:1000D000C0980E9456000895C09A0E945600089544
:1000E000CF93DF93EC0103C021960E946C008881BE
:1000F0008823D1F7DF91CF9108956295660F660F3F
:10010000607C680F862F80680E946800089581E0F7
:100110000E94680080EA9FE00197F1F7089582E06D
:100120000E94680080EA9FE00197F1F708951F930D
:10013000CF93DF93BA9ABB9ABC9ABD9AB99AB89AF0
:1001400080E395E70197F1F7C098C19810E0C0E10E
:10015000D7E2C19A83E00E944100C198CE01019785
:10016000F1F71F5F1330A9F7C19A82E00E944100A6
:10017000C19880ED97E00197F1F788E20E9468004E
:1001800088E00E94680081E00E94680080EA9FE0A9
:100190000197F1F786E00E9468008CE00E946800F9
:1001A000DF91CF911F9108953E9A3F98309A319AEE
:1001B000329A379A389839983A983B983C980895EB
:1001C0003E9A3F98309A319A329A379A389A3998AB
:1001D0003A983B983C980895369A369BFECF24B1C6
:1001E00035B1C9010895369A369BFECF84B195B1D9
:1001F000892BD9F0369A369BFECF64B175B180E079
:1002000090E024EF31E040E050E00E94C2019B0109
:10021000AC019AE056954795379527959A95D1F771
:100220002F5F3F4F4F4F5F4F16C0369A369BFECF22
:1002300064B175B180E090E024EF31E040E050E03F
:100240000E94C2019B01AC018AE056954795379503
:1002500027958A95D1F7B901CA0108952F923F9247
:100260004F925F926F927F928F929F92AF92BF92C6
:10027000CF92DF92EF92FF920F931F93DF93CF9372
:10028000CDB7DEB764970FB6F894DEBF0FBECDBF13
:100290000E9497000E948F000E948700A39AA49A50
:1002A00040E4642E4CE9742E38EC232E312C4E01A0
:1002B0000894811C911C20E6422E20E0522E0E94C0
:1002C000D400C3010197F1F70E94F3007B018C0178
:1002D0000E94E000C3010197F1F70E94F3005B0167
:1002E0006C018CED95E0F1013197F1F70197D9F7A9
:1002F0008DB79EB70C970FB6F8949EBF0FBE8DBFFB
:10030000EDB7FEB73196ADB7BEB712969C928E92FE
:10031000119753824282E482F58206831783A08676
:10032000B186C286D3860E94E1018DB79EB70C9636
:100330000FB6F8949EBF0FBE8DBF80E060E00E94B4
:100340007D000E948700C4010E947000D801C7018F
:100350004996A11DB11D8A159B05AC05BD0510F47C
:10036000AC9AADCF87EE9FEFAFEFBFEFE80EF91E6F
:100370000A1F1B1FAE14BF04C006D10608F09FCF92
:10038000AC989DCF629FD001739FF001829FE00DDA
:10039000F11D649FE00DF11D929FF00D839FF00D04
:1003A000749FF00D659FF00D9927729FB00DE11DB0
:1003B000F91F639FB00DE11DF91FBD01CF0111248D
:1003C0000895AEE0B0E0E7EEF1E00C9490040D8902
:1003D0001E8986E08C831A8309838FEF9FE79E83B3
:1003E0008D839E01275E3F4FCE0101966F89788DE8
:1003F000A9010E9405022F813885020F131FF80101
:1004000010822E96E4E00C94AC04ABE0B0E0EBE09C
:10041000F2E00C9482043C012B015A01FC0117828A
:100420001682838181FD03C06FEF7FEFC6C19AE022
:10043000892E1E010894211C311CF3012381F20135
:1004400023FD859123FF81912F01882309F4B2C1F7
:10045000853239F423FD859123FF81912F01853267
:1004600029F490E0B3010E94F803E7CF982FFF240E
:10047000EE249924FFE1FF15D0F09B3269F09C3205
:1004800028F4903259F0933291F40EC09D3249F025
:10049000903369F441E024C052E0F52A84E0F82A60
:1004A00028C098E0F92A25C0E0E1FE2A22C0F7FC26
:1004B00029C0892F80538A3070F4F6FE05C0989CBD
:1004C000902C1124980E15C0E89CE02C1124E80E05
:1004D000F0E2FF2A0EC09E3229F4F6FC6BC140E424
:1004E000F42A07C09C3619F450E8F52A02C0983661
:1004F00049F4F20123FD959123FF91912F01992356
:1005000009F0B8CF892F8554833018F0805283309A
:1005100038F444E050E0A40EB51E5FE359830FC0E9
:10052000933631F0933779F0933509F056C020C0F7
:10053000F5018081898342E050E0A40EB51E61017F
:1005400001E010E012C0F501C080D180F6FC03C0CC
:100550006FEF7FEF02C0692D70E042E050E0A40E23
:10056000B51EC6010E94ED038C015FE7F52214C0A1
:10057000F501C080D180F6FC03C06FEF7FEF02C0B1
:10058000692D70E042E050E0A40EB51EC6010E9445
:10059000E2038C0150E8F52AF3FE07C01AC080E29E
:1005A00090E0B3010E94F803EA948E2D90E00817C2
:1005B0001907A8F30EC0F601F7FC8591F7FE8191AB
:1005C0006F0190E0B3010E94F803E110EA9401503A
:1005D00010400115110579F7EAC0943611F09936EB
:1005E00069F5F7FE08C0F501208131814281538110
:1005F00084E090E00AC0F501808191819C0144274C
:1006000037FD4095542F82E090E0A80EB91E9FE67A
:10061000F92257FF09C050954095309521953F4FDD
:100620004F4F5F4FE0E8FE2ACA01B901A1012AE05D
:1006300030E00E942404D82ED21840C0953729F407
:100640001F2D1F7E2AE030E01DC01F2D197F9F3611
:1006500061F0903720F4983509F0ACC00FC09037A6
:1006600039F0983709F0A6C004C028E030E00AC08D
:10067000106114FD146020E130E004C014FD166028
:1006800020E132E017FF08C0F501608171818281AD
:10069000938144E050E008C0F50180819181BC0164
:1006A00080E090E042E050E0A40EB51EA1010E945F
:1006B0002404D82ED2188FE7F82EF122F6FE0BC0B4
:1006C0005EEFF522D91438F4F4FE07C0F2FC05C041
:1006D0008FEEF82202C01D2D01C0192DF4FE0DC0B1
:1006E000FE01ED0DF11D8081803319F499EEF922A0
:1006F00008C01F5FF2FE05C003C08F2D867809F089
:100700001F5F0F2DF3FC14C0F0FE0FC01E1510F07C
:100710009D2C0BC09D2C9E0C911A1E2D06C080E2B4
:1007200090E0B3010E94F8031F5F1E15C0F304C0E0
:100730001E1510F4E11A01C0EE2404FF0FC080E37F
:1007400090E0B3010E94F80302FF1DC001FD03C049
:1007500088E790E00EC088E590E00BC0802F867897
:1007600091F001FF02C08BE201C080E2F7FC8DE254
:1007700090E0B3010E94F80306C080E390E0B3016B
:100780000E94F8039A94D914C0F3DA94F101ED0DA4
:10079000F11D808190E0B3010E94F803DD20A9F7EC
:1007A00006C080E290E0B3010E94F803EA94EE20D4
:1007B000C1F743CEF30166817781CB012B96E2E14D
:1007C0000C949E04FC010590615070400110D8F714
:1007D000809590958E0F9F1F0895FC016150704089
:1007E00001900110D8F7809590958E0F9F1F089566
:1007F0000F931F93CF93DF938C01EB018B8181FFCC
:100800001BC082FF0DC02E813F818C819D812817E6
:10081000390764F4E881F9810193F983E88306C01C
:10082000E885F985802F0995892B31F48E819F8188
:1008300001969F838E8302C00FEF1FEFC801DF91E7
:10084000CF911F910F910895FA01AA27283051F1F5
:10085000203181F1E8946F936E7F6E5F7F4F8F4FF1
:100860009F4FAF4FB1E03ED0B4E03CD0670F781F50
:10087000891F9A1FA11D680F791F8A1F911DA11D35
:100880006A0F711D811D911DA11D20D009F468946E
:100890003F912AE0269F11243019305D3193DEF616
:1008A000CF010895462F4770405D4193B3E00FD0CC
:1008B000C9F7F6CF462F4F70405D4A3318F0495DB7
:1008C00031FD4052419302D0A9F7EACFB4E0A6959A
:1008D0009795879577956795BA95C9F700976105BC
:1008E000710508959B01AC010A2E06945795479512
:1008F00037952795BA95C9F7620F731F841F951F07
:10090000A01D08952F923F924F925F926F927F9217
:100910008F929F92AF92BF92CF92DF92EF92FF920F
:100920000F931F93CF93DF93CDB7DEB7CA1BDB0BBB
:100930000FB6F894DEBF0FBECDBF09942A88398860
:1009400048885F846E847D848C849B84AA84B98467
:10095000C884DF80EE80FD800C811B81AA81B98173
:10096000CE0FD11D0FB6F894DEBF0FBECDBFED0187
:060970000895F894FFCF8A
:1009760056313A256C75562C2056323A256C7556EA
:0209860000006F
:00000001FF
