:100000000C942A000C9447000C9447000C94470071
:100010000C9447000C9447000C9447000C94510139
:100020000C9447000C9447000C9447000C94470034
:100030000C9447000C9447000C9447000C94470024
:100040000C9447000C9447000C9447000C94470014
:100050000C94470011241FBECFE5D8E0DEBFCDBF12
:1000600011E0A0E6B0E0EEE9F5E102C005900D92E6
:10007000AA34B107D9F711E0AAE4B1E001C01D929A
:10008000AE34B107E1F70E9491070C94CD0A0C94AD
:10009000000080FF02C0C29A01C0C29881FF02C066
:1000A000C39A01C0C39882FF02C0C49A01C0C49819
:1000B00083FF02C0C59A0895C59808951F93182F0D
:1000C000C19A82958F700E944900C198C19A812F70
:1000D0000E944900C19885E88A95F1F71F9108951B
:1000E000C0980E945E000895C09A0E945E00089524
:1000F000CF93DF93EC0103C021960E9474008881A6
:100100008823D1F7DF91CF9108956295660F660F2E
:10011000607C680F862F80680E947000089581E0DF
:100120000E94700080EA9FE00197F1F7089582E055
:100130000E94700080EA9FE00197F1F708951F93F5
:10014000CF93DF93BA9ABB9ABC9ABD9AB99AB89AE0
:1001500080E395E70197F1F7C098C19810E0C0E1FE
:10016000D7E2C19A83E00E944900C198CE0101976D
:10017000F1F71F5F1330A9F7C19A82E00E9449008E
:10018000C19880ED97E00197F1F788E20E94700036
:1001900088E00E94700081E00E94700080EA9FE089
:1001A0000197F1F786E00E9470008CE00E947000D9
:1001B000DF91CF911F9108953E9A3F98309A319ADE
:1001C000329A379A389839983A983B983C980895DB
:1001D000369A369BFECF24B135B1C9010895369ABF
:1001E000369BFECF84B195B1892BD9F0369A369BD8
:1001F000FECF64B175B180E090E024EF31E040E0E3
:1002000050E00E94A1079B01AC019AE056954795EA
:10021000379527959A95D1F72F5F3F4F4F4F5F4FF7
:1002200016C0369A369BFECF64B175B180E090E07F
:1002300024EF31E040E050E00E94A1079B01AC01B7
:100240008AE056954795379527958A95D1F7B90154
:10025000CA0108958FEF84BB15BA0895EFE3F1E06A
:10026000E80FF11D808185BB08958EB588608EBD35
:100270008EB584608EBD88E391E09BBD8ABD89B751
:10028000806189BF08958EB588608EBD8EB584600B
:100290008EBD82E19AE79BBD8ABD89B7806189BF27
:1002A00008951F920F920FB60F9211248F939F9370
:1002B000AF93BF9380914A0190914B01A0914C0163
:1002C000B0914D010196A11DB11D80934A019093FB
:1002D0004B01A0934C01B0934D01BF91AF919F9101
:1002E0008F910F900FBE0F901F9018950F931F9333
:1002F000DF93CF93CDB7DEB764970FB6F894DEBF28
:100300000FBECDBF0E948F008E010F5F1F4FC8012F
:1003100060E670E00E94EE0780E060E00E948500E9
:10032000C8010E947800C80161E770E00E94EE07F2
:1003300080E061E00E948500C8010E94780021E011
:1003400030E040E157E29098CA010197F1F780B39D
:10035000909A2F5F3F4F93E02132390711F082FDD1
:10036000F2CF64960FB6F894DEBF0FBECDBFCF912B
:10037000DF911F910F9108952F923F924F925F92BC
:100380006F927F928F929F92AF92BF92CF92DF92A5
:10039000EF92FF920F931F93DF93CF93CDB7DEB70A
:1003A00064970FB6F894DEBF0FBECDBF0E94430125
:1003B0008FEF84BB15BA10924A0110924B01109234
:1003C0004C0110924D0180E060E00E9485000E9487
:1003D0008F00789460E070E0CC24DD24EE24FF24CC
:1003E00087015E010894A11CB11C48EC242E312C1D
:1003F000909880E197E20197F1F780B390E09695AD
:10040000879596958795909A21E0422E512C482207
:10041000592280FDD6C015BAD4C00894C11CD11C85
:1004200060904A0170904B0180904C0190904D017A
:1004300080914A0190914B01A0914C01B0914D01E6
:10044000CC97A105B10568F00894E11CF11C011DD1
:10045000111D10924A0110924B0110924C01109202
:100460004D012CE3E216F1040105110518F0EE240C
:10047000FF2487013AE0C316D1046CF4EC2DF0E0C0
:10048000E15CFE4F808185BB89E0C816D10419F478
:10049000CC24CA94DC2C80914A0190914B01A0910C
:1004A0004C01B0914D010A97A105B10500F59AE004
:1004B000E916F10401051105D0F440914A0150916B
:1004C0004B0160914C0170914D01ADB7BEB71C97C7
:1004D0000FB6F894BEBF0FBEADBFEDB7FEB73196F5
:1004E0001296BC92AE92119720E830E045C0809100
:1004F0004A0190914B01A0914C01B0914D010A9796
:10050000A105B105D0F440914A0150914B01609191
:100510004C0170914D01ADB7BEB71C970FB6F89462
:10052000BEBF0FBEADBFEDB7FEB731961296BC92FF
:10053000AE92119722E930E01FC09AE0E916F1046B
:1005400001051105A0F540914A0150914B016091C0
:100550004C0170914D01ADB7BEB71C970FB6F89422
:10056000BEBF0FBEADBFEDB7FEB731961296BC92BF
:10057000AE92119723EA30E033832283E482F5823E
:100580000683178340875187628773870E94F50728
:100590008DB79EB70C960FB6F8949EBF0FBE8DBF59
:1005A00080E060E00E948500C5010E947800DE9A2C
:1005B00080ED97E0F1013197F1F70197D9F7B30199
:1005C000DE9820914A0130914B0140914C015091AD
:1005D0004D01CB01AA2797FDA095BA2F821793074B
:1005E000A407B50709F019CF452809F001CF649693
:1005F0000FB6F894DEBF0FBECDBFCF91DF911F9134
:100600000F91FF90EF90DF90CF90BF90AF909F90B1
:100610008F907F906F905F904F903F902F900895B4
:100620002F923F924F925F926F927F928F929F9202
:10063000AF92BF92CF92DF92EF92FF920F931F93F0
:10064000DF93CF93CDB7DEB768970FB6F894DEBFD0
:100650000FBECDBF0E9435018E010F5F1F4FC80135
:1006600064EB70E00E94EE0780E060E00E9485008D
:100670000E948F00C8010E94780080E293E028EC7D
:1006800030E0F9013197F1F70197D9F7AA24BB249B
:10069000650121E030E040E050E02D8B3E8B4F8B38
:1006A000588F6624772421E030E0442455241E012D
:1006B0000894211C311C6DC140914A0150914B019D
:1006C00060914C0170914D014D8B5E8B6F8B788FDB
:1006D000E0904A01F0904B0100914C0110914D01C6
:1006E00064E670E0669EC001679E900D769E900D58
:1006F00011249C01442737FD4095542F80914A01D5
:1007000090914B01A0914C01B0914D01821B930B34
:10071000A40BB50B84369105A105B10548F4D801A9
:10072000C701821B930BA40BB50B9C01AD0125C027
:100730008BB390E189278BBB0894611C711C0894D2
:10074000A11CB11CC11CD11C20914A0130914B014C
:1007500040914C0150914D01A4E6B0E06A9EC00169
:100760006B9E900D7A9E900D1124AA2797FDA0955F
:10077000BA2F281B390B4A0B5B0BBCE3AB16B10439
:10078000C104D10421F4AA24BB24650106C06AE097
:10079000A616B104C104D104B8F58DB79EB70C9765
:1007A0000FB6F8949EBF0FBE8DBFEDB7FEB7319662
:1007B000ADB7BEB712963C922E92119762EC70E0E4
:1007C00073836283A482B582C682D78220873187F1
:1007D000428753870E94F5078DB79EB70C960FB6D8
:1007E000F8949EBF0FBE8DBF80E060E00E94850040
:1007F000C1010E94780080E293E0E8ECF0E03197DC
:10080000F1F70197D1F734C0ADB7BEB71C970FB65B
:10081000F894BEBF0FBEADBFEDB7FEB731961296CE
:100820003C922E92119764ED70E073836283A482F0
:10083000B582C682D78220873187428753870E943C
:10084000F5078DB79EB70C960FB6F8949EBF0FBEF6
:100850008DBF80E060E00E948500C1010E947800A9
:1008600080E293E0E8ECF0E03197F1F70197D1F7FF
:10087000909880E197E20197F1F720B3909A9198D0
:1008800080E197E20197F1F782990CC088EE93E03E
:10089000E8ECF0E03197F1F70197D1F7882499243B
:1008A00044245524022F10E01695079516950795B8
:1008B00001701070919A80914A0190914B01A09122
:1008C0004C01B0914D012D893E894F89588D2817D3
:1008D00039074A075B0739F04114510421F001152B
:1008E000110509F0E9CE9401F894909880E197E21F
:1008F0000197F1F7829902C000E010E0909A41E080
:1009000084169104A9F4919880E197E20197F1F798
:1009100082990CC084EF91E0E8ECF0E03197F1F7B8
:100920000197D1F7789461E0462E512C919A2FC00F
:10093000919880E197E20197F1F7829926C0109291
:100940004A0110924B0110924C0110924D01C101CD
:1009500064EB70E00E94EE0780E060E00E9485009A
:100960000E948F00C1010E94780088EE93E0E8ECBD
:10097000F0E03197F1F70197D1F7AA24BB24650184
:100980006624772451E0852E912C919A9401012BB5
:1009900021F0490101E010E08ECF68960FB6F8947F
:1009A000DEBF0FBECDBFCF91DF911F910F91FF90A2
:1009B000EF90DF90CF90BF90AF909F908F907F90FF
:1009C0006F905F904F903F902F9008954F925F925D
:1009D0006F927F928F929F92AF92BF92CF92DF924F
:1009E000EF92FF920F931F93DF93CF93CDB7DEB7B4
:1009F00064970FB6F894DEBF0FBECDBF8FEF84BBF8
:100A000015BA11E0C12ED12CFF24B8EC4B2E512C7D
:100A1000A0E18A2EA7E29A2E5E010894A11CB11CC7
:100A2000F5EE6F2EF0E07F2E77C0F2013197F1F7EF
:100A30000197D9F79098C4010197F1F7E0B2839933
:100A400003C042E3F412F394909A9198C401019781
:100A5000F1F7839902C0F110FA94919A0E948F00E5
:100A600080E060E00E9485000F2D10E000D000D0F3
:100A700000D0EDB7FEB73196ADB7BEB71296BC92B7
:100A8000AE92119773826282158304830E94F507E8
:100A90004DB75EB74A5F5F4F0FB6F8945EBF0FBEAB
:100AA0004DBFC5010E94780059E05F1518F4809190
:100AB000490104C0F801E15CFE4F808185BB00FF65
:100AC00003C0DC98DD9A02C0DC9ADD9881E08F15C6
:100AD000D8F422E009C08F2D622F0E94C00799230D
:100AE00011F4CC24DD242F5F822F90E0DC01AA9F3B
:100AF000C001AB9F900DBA9F900D112408171907E4
:100B000054F7C114D10429F4DE98E1E0CE2ED12CA3
:100B100001C0DE9AE2FE03C088EE93E086CFDC9847
:100B2000DD98DE9815BA64960FB6F894DEBF0FBE56
:100B3000CDBFCF91DF911F910F91FF90EF90DF908C
:100B4000CF90BF90AF909F908F907F906F905F906D
:100B50004F9008956F927F928F929F92AF92BF9223
:100B6000CF92DF92EF92FF920F931F93DF93CF9379
:100B7000CDB7DEB764970FB6F894DEBF0FBECDBF1A
:100B80000E94EF006B017C0124E630E040E050E081
:100B90000E94CC07922E832E742E652E80E061E099
:100BA0000E9485008DB79EB70C970FB6F8949EBF34
:100BB0000FBE8DBF0DB71EB70F5F1F4F5E010894AC
:100BC000A11CB11CEDB7FEB7B282A18281EF90E00B
:100BD000F801938382839482858276826782692D6D
:100BE000782D872D962D24E630E040E050E00E94DD
:100BF000A107C61AD70AE80AF90AF801C086D18601
:100C0000E286F3860E94F5078DB79EB70C960FB665
:100C1000F8949EBF0FBE8DBFC5010E9478006496F8
:100C20000FB6F894DEBF0FBECDBFCF91DF911F91FD
:100C30000F91FF90EF90DF90CF90BF90AF909F907B
:100C40008F907F906F9008956F927F928F929F9276
:100C5000AF92BF92CF92DF92EF92FF920F931F93CA
:100C6000DF93CF93CDB7DEB764970FB6F894DEBFAE
:100C70000FBECDBF0E94DC006E010894C11CD11CC8
:100C800094E0692E91E0792E80E1882E87E2982EFB
:100C900008ECA02EB12C369A369BFECFE4B0F5B00E
:100CA0000E948F0080E060E00E9485008DB79EB7B3
:100CB00008970FB6F8949EBF0FBE8DBFEDB7FEB775
:100CC0003196ADB7BEB71296DC92CE921197738271
:100CD000628200E010E0E482F582068317830E94BE
:100CE000F5078DB79EB708960FB6F8949EBF0FBE56
:100CF0008DBFC6010E94780080E061E00E948500FF
:100D00000E94AA059098C4010197F1F720B3909A28
:100D100088EE93E0F5013197F1F70197D9F722FDBD
:100D2000BACF64960FB6F894DEBF0FBECDBFCF9199
:100D3000DF911F910F91FF90EF90DF90CF90BF90C8
:100D4000AF909F908F907F906F9008956F927F9259
:100D50008F929F92AF92BF92CF92DF92EF92FF92CB
:100D60000F931F93DF93CF93CDB7DEB764970FB682
:100D7000F894DEBF0FBECDBF889A909A899A919A57
:100D80008A98929A8B98939A01E010E0EE24FF24BF
:100D900058EC652E712C40E1842E47E2942E6E01B2
:100DA0000894C11CD11C30E2A32E3EE4B32E02C035
:100DB000EE24FF2488EE93E0F3013197F1F70197D9
:100DC000D9F79098C4010197F1F780B3839908C0CF
:100DD000015010408FEF0F3F180711F400E010E0B2
:100DE000909A9198C4010197F1F7829903C021E08C
:100DF000E22EF12C839907C00F5F1F4F06301105BB
:100E000014F005E010E0919A01301105C9F40E9438
:100E10008F00C6016FE071E00E94EE0780E060E0A5
:100E20000E948500C6010E947800C5010197F1F774
:100E300081E0E816F10409F0BBCF0E947601B8CF3B
:100E400002301105C9F40E948F00C60167E171E00C
:100E50000E94EE0780E060E00E948500C6010E94CB
:100E60007800C5010197F1F781E0E816F10409F077
:100E70009FCF0E94E6049CCF03301105C9F40E9465
:100E80008F00C60161E271E00E94EE0780E060E041
:100E90000E948500C6010E947800C5010197F1F704
:100EA00081E0E816F10409F083CF0E94100380CF9F
:100EB00004301105C9F40E948F00C6016BE271E095
:100EC0000E94EE0780E060E00E948500C6010E945B
:100ED0007800C5010197F1F781E0E816F10409F007
:100EE00067CF0E94BC0164CF0530110509F062CFC5
:100EF0000E948F00C60164E371E00E94EE0780E06B
:100F000060E00E948500C6010E947800C50101973B
:100F1000F1F781E0E816F10409F04ACF0E942406B7
:100F200047CF0E949F000E9497000E948F00D49A92
:100F3000D59AD69A0E9476010E94A60680E090E09B
:100F40000895629FD001739FF001829FE00DF11D13
:100F5000649FE00DF11D929FF00D839FF00D749F33
:100F6000F00D659FF00D9927729FB00DE11DF91FDF
:100F7000639FB00DE11DF91FBD01CF01112408953C
:100F8000991B79E004C0991F961708F0961B881FDB
:100F90007A95C9F780950895A1E21A2EAA1BBB1B6A
:100FA000FD010DC0AA1FBB1FEE1FFF1FA217B30735
:100FB000E407F50720F0A21BB30BE40BF50B661F4B
:100FC000771F881F991F1A9469F76095709580950F
:100FD00090959B01AC01BD01CF010895FB01DC019F
:100FE00001900D920020E1F70895AEE0B0E0EBEF44
:100FF000F7E00C94A40A0D891E8986E08C831A837D
:1010000009838FEF9FE79E838D839E01275E3F4F6D
:10101000CE0101966F89788DA9010E9419082F8150
:101020003885020F131FF80110822E96E4E00C940D
:10103000C00AABE0B0E0EFE1F8E00C94960A3C01A6
:101040002B015A01FC0117821682838181FD03C0A6
:101050006FEF7FEFC6C19AE0892E1E010894211C14
:10106000311CF3012381F20123FD859123FF81913E
:101070002F01882309F4B2C1853239F423FD85910B
:1010800023FF81912F01853229F490E0B3010E9462
:101090000C0AE7CF982FFF24EE249924FFE1FF15D7
:1010A000D0F09B3269F09C3228F4903259F09332A0
:1010B00091F40EC09D3249F0903369F441E024C0B0
:1010C00052E0F52A84E0F82A28C098E0F92A25C0E1
:1010D000E0E1FE2A22C0F7FC29C0892F80538A3024
:1010E00070F4F6FE05C0989C902C1124980E15C043
:1010F000E89CE02C1124E80EF0E2FF2A0EC09E329C
:1011000029F4F6FC6BC140E4F42A07C09C3619F4BC
:1011100050E8F52A02C0983649F4F20123FD959172
:1011200023FF91912F01992309F0B8CF892F85547E
:10113000833018F08052833038F444E050E0A40E3D
:10114000B51E5FE359830FC0933631F0933779F0C2
:10115000933509F056C020C0F5018081898342E0B3
:1011600050E0A40EB51E610101E010E012C0F501CF
:10117000C080D180F6FC03C06FEF7FEF02C0692D05
:1011800070E042E050E0A40EB51EC6010E94010AC4
:101190008C015FE7F52214C0F501C080D180F6FC18
:1011A00003C06FEF7FEF02C0692D70E042E050E0B6
:1011B000A40EB51EC6010E94F6098C0150E8F52A5E
:1011C000F3FE07C01AC080E290E0B3010E940C0A4F
:1011D000EA948E2D90E008171907A8F30EC0F601C7
:1011E000F7FC8591F7FE81916F0190E0B3010E94B9
:1011F0000C0AE110EA94015010400115110579F72D
:10120000EAC0943611F0993669F5F7FE08C0F50189
:10121000208131814281538184E090E00AC0F50150
:10122000808191819C01442737FD4095542F82E0B5
:1012300090E0A80EB91E9FE6F92257FF09C050950D
:101240004095309521953F4F4F4F5F4FE0E8FE2A84
:10125000CA01B901A1012AE030E00E94380AD82E63
:10126000D21840C0953729F41F2D1F7E2AE030E0A8
:101270001DC01F2D197F9F3661F0903720F49835DF
:1012800009F0ACC00FC0903739F0983709F0A6C00C
:1012900004C028E030E00AC0106114FD146020E1B1
:1012A00030E004C014FD166020E132E017FF08C0F2
:1012B000F501608171818281938144E050E008C032
:1012C000F50180819181BC0180E090E042E050E036
:1012D000A40EB51EA1010E94380AD82ED2188FE79D
:1012E000F82EF122F6FE0BC05EEFF522D91438F489
:1012F000F4FE07C0F2FC05C08FEEF82202C01D2DDF
:1013000001C0192DF4FE0DC0FE01ED0DF11D80810F
:10131000803319F499EEF92208C01F5FF2FE05C070
:1013200003C08F2D867809F01F5F0F2DF3FC14C0CA
:10133000F0FE0FC01E1510F09D2C0BC09D2C9E0CB6
:10134000911A1E2D06C080E290E0B3010E940C0AA3
:101350001F5F1E15C0F304C01E1510F4E11A01C072
:10136000EE2404FF0FC080E390E0B3010E940C0A5A
:1013700002FF1DC001FD03C088E790E00EC088E5B4
:1013800090E00BC0802F867891F001FF02C08BE2C5
:1013900001C080E2F7FC8DE290E0B3010E940C0AEC
:1013A00006C080E390E0B3010E940C0A9A94D9141D
:1013B000C0F3DA94F101ED0DF11D808190E0B301ED
:1013C0000E940C0ADD20A9F706C080E290E0B3017C
:1013D0000E940C0AEA94EE20C1F743CEF301668125
:1013E0007781CB012B96E2E10C94B20AFC010590C7
:1013F000615070400110D8F7809590958E0F9F1F17
:101400000895FC016150704001900110D8F780955B
:1014100090958E0F9F1F08950F931F93CF93DF9387
:101420008C01EB018B8181FF1BC082FF0DC02E81DF
:101430003F818C819D812817390764F4E881F98107
:101440000193F983E88306C0E885F985802F099523
:10145000892B31F48E819F8101969F838E8302C0F8
:101460000FEF1FEFC801DF91CF911F910F910895EA
:10147000FA01AA27283051F1203181F1E8946F93C5
:101480006E7F6E5F7F4F8F4F9F4FAF4FB1E03ED06B
:10149000B4E03CD0670F781F891F9A1FA11D680F09
:1014A000791F8A1F911DA11D6A0F711D811D911D3C
:1014B000A11D20D009F468943F912AE0269F1124B1
:1014C0003019305D3193DEF6CF010895462F477015
:1014D000405D4193B3E00FD0C9F7F6CF462F4F7070
:1014E000405D4A3318F0495D31FD4052419302D0CE
:1014F000A9F7EACFB4E0A695979587957795679574
:10150000BA95C9F700976105710508959B01AC0173
:101510000A2E06945795479537952795BA95C9F79A
:10152000620F731F841F951FA01D08952F923F9275
:101530004F925F926F927F928F929F92AF92BF92E3
:10154000CF92DF92EF92FF920F931F93CF93DF938F
:10155000CDB7DEB7CA1BDB0B0FB6F894DEBF0FBEEC
:10156000CDBF09942A88398848885F846E847D8439
:101570008C849B84AA84B984C884DF80EE80FD803B
:101580000C811B81AA81B981CE0FD11D0FB6F894B1
:0E159000DEBF0FBECDBFED010895F894FFCF72
:10159E0050726F6772616D2050544D20323032316F
:1015AE00003235323931392C20323532383730006D
:1015BE005A656761723A2030256C753A30256C7524
:1015CE0020005A656761723A20256C753A30256C99
:1015DE007520005A656761723A2030256C753A2580
:1015EE006C75200053746F7065723A2030303A304B
:1015FE00300053746F7065723A2030256C753A2541
:10160E006C75200053746F7065723A20256C753AB4
:10161E00256C7520004C69637A62613A202575202D
:10162E000020506F6D6961723A20256C752E256C05
:10163E0075205600204144433A20256C7520003118
:10164E002E20496E666F00322E204C69637A6279C5
:10165E0000332E2053746F70657200342E205A653D
:10166E0067617200352E204D6965726E696B007E62
:0A167E00306D79335B5F707F7B01F4
:00000001FF
